{
  "_format": "hh-sol-artifact-1",
  "contractName": "eCourt",
  "sourceName": "contracts/eCourt.sol",
  "address": "0x42Fc1d53EcF8B4c46989da0d44f07490668338c8",
  "abi": [
    {
      "inputs": [],
      "stateMutability": "nonpayable",
      "type": "constructor"
    },
    {
      "inputs": [],
      "name": "CaseAlreadySettled",
      "type": "error"
    },
    {
      "inputs": [],
      "name": "CaseNotFound",
      "type": "error"
    },
    {
      "inputs": [],
      "name": "InsufficientFunds",
      "type": "error"
    },
    {
      "inputs": [],
      "name": "NotAuthorized",
      "type": "error"
    },
    {
      "inputs": [
        {
          "internalType": "address",
          "name": "owner",
          "type": "address"
        }
      ],
      "name": "OwnableInvalidOwner",
      "type": "error"
    },
    {
      "inputs": [
        {
          "internalType": "address",
          "name": "account",
          "type": "address"
        }
      ],
      "name": "OwnableUnauthorizedAccount",
      "type": "error"
    },
    {
      "anonymous": false,
      "inputs": [
        {
          "indexed": false,
          "internalType": "uint64",
          "name": "caseId",
          "type": "uint64"
        },
        {
          "indexed": false,
          "internalType": "address",
          "name": "plaintiff",
          "type": "address"
        },
        {
          "indexed": false,
          "internalType": "address",
          "name": "defendant",
          "type": "address"
        },
        {
          "indexed": false,
          "internalType": "string",
          "name": "caseDetails",
          "type": "string"
        }
      ],
      "name": "CaseOpened",
      "type": "event"
    },
    {
      "anonymous": false,
      "inputs": [
        {
          "indexed": false,
          "internalType": "uint64",
          "name": "caseId",
          "type": "uint64"
        },
        {
          "indexed": false,
          "internalType": "bytes",
          "name": "verdict",
          "type": "bytes"
        }
      ],
      "name": "CaseSettled",
      "type": "event"
    },
    {
      "anonymous": false,
      "inputs": [
        {
          "indexed": false,
          "internalType": "uint64",
          "name": "caseId",
          "type": "uint64"
        },
        {
          "indexed": false,
          "internalType": "address",
          "name": "submitter",
          "type": "address"
        },
        {
          "indexed": false,
          "internalType": "bytes",
          "name": "evidence",
          "type": "bytes"
        }
      ],
      "name": "EvidenceSubmitted",
      "type": "event"
    },
    {
      "anonymous": false,
      "inputs": [
        {
          "indexed": false,
          "internalType": "uint64",
          "name": "caseId",
          "type": "uint64"
        },
        {
          "indexed": false,
          "internalType": "address",
          "name": "payer",
          "type": "address"
        },
        {
          "indexed": false,
          "internalType": "uint256",
          "name": "amount",
          "type": "uint256"
        }
      ],
      "name": "FeesPaid",
      "type": "event"
    },
    {
      "anonymous": false,
      "inputs": [
        {
          "indexed": true,
          "internalType": "address",
          "name": "previousOwner",
          "type": "address"
        },
        {
          "indexed": true,
          "internalType": "address",
          "name": "newOwner",
          "type": "address"
        }
      ],
      "name": "OwnershipTransferred",
      "type": "event"
    },
    {
      "inputs": [
        {
          "internalType": "uint64",
          "name": "",
          "type": "uint64"
        }
      ],
      "name": "cases",
      "outputs": [
        {
          "internalType": "address",
          "name": "plaintiff",
          "type": "address"
        },
        {
          "internalType": "address",
          "name": "defendant",
          "type": "address"
        },
        {
          "internalType": "string",
          "name": "caseDetails",
          "type": "string"
        },
        {
          "internalType": "bool",
          "name": "isSettled",
          "type": "bool"
        },
        {
          "internalType": "uint64",
          "name": "attestationId",
          "type": "uint64"
        },
        {
          "internalType": "uint256",
          "name": "filingFee",
          "type": "uint256"
        },
        {
          "internalType": "uint256",
          "name": "settlementFee",
          "type": "uint256"
        },
        {
          "internalType": "bytes",
          "name": "verdict",
          "type": "bytes"
        }
      ],
      "stateMutability": "view",
      "type": "function"
    },
    {
      "inputs": [
        {
          "internalType": "uint64",
          "name": "caseId",
          "type": "uint64"
        }
      ],
      "name": "getCaseDetails",
      "outputs": [
        {
          "components": [
            {
              "internalType": "address",
              "name": "plaintiff",
              "type": "address"
            },
            {
              "internalType": "address",
              "name": "defendant",
              "type": "address"
            },
            {
              "internalType": "string",
              "name": "caseDetails",
              "type": "string"
            },
            {
              "internalType": "bool",
              "name": "isSettled",
              "type": "bool"
            },
            {
              "internalType": "uint64",
              "name": "attestationId",
              "type": "uint64"
            },
            {
              "internalType": "uint256",
              "name": "filingFee",
              "type": "uint256"
            },
            {
              "internalType": "uint256",
              "name": "settlementFee",
              "type": "uint256"
            },
            {
              "internalType": "bytes",
              "name": "verdict",
              "type": "bytes"
            },
            {
              "internalType": "bytes[]",
              "name": "evidenceList",
              "type": "bytes[]"
            }
          ],
          "internalType": "struct eCourt.ECaseData",
          "name": "",
          "type": "tuple"
        }
      ],
      "stateMutability": "view",
      "type": "function"
    },
    {
      "inputs": [
        {
          "internalType": "address",
          "name": "user",
          "type": "address"
        }
      ],
      "name": "getUserCases",
      "outputs": [
        {
          "internalType": "uint64[]",
          "name": "",
          "type": "uint64[]"
        }
      ],
      "stateMutability": "view",
      "type": "function"
    },
    {
      "inputs": [
        {
          "internalType": "address",
          "name": "defendant",
          "type": "address"
        },
        {
          "internalType": "string",
          "name": "caseDetails",
          "type": "string"
        },
        {
          "internalType": "uint256",
          "name": "filingFee",
          "type": "uint256"
        }
      ],
      "name": "openCase",
      "outputs": [],
      "stateMutability": "payable",
      "type": "function"
    },
    {
      "inputs": [],
      "name": "owner",
      "outputs": [
        {
          "internalType": "address",
          "name": "",
          "type": "address"
        }
      ],
      "stateMutability": "view",
      "type": "function"
    },
    {
      "inputs": [],
      "name": "renounceOwnership",
      "outputs": [],
      "stateMutability": "nonpayable",
      "type": "function"
    },
    {
      "inputs": [],
      "name": "schemaId",
      "outputs": [
        {
          "internalType": "uint64",
          "name": "",
          "type": "uint64"
        }
      ],
      "stateMutability": "view",
      "type": "function"
    },
    {
      "inputs": [
        {
          "internalType": "address",
          "name": "instance",
          "type": "address"
        }
      ],
      "name": "setSPInstance",
      "outputs": [],
      "stateMutability": "nonpayable",
      "type": "function"
    },
    {
      "inputs": [
        {
          "internalType": "uint64",
          "name": "schemaId_",
          "type": "uint64"
        }
      ],
      "name": "setSchemaID",
      "outputs": [],
      "stateMutability": "nonpayable",
      "type": "function"
    },
    {
      "inputs": [
        {
          "internalType": "uint64",
          "name": "caseId",
          "type": "uint64"
        },
        {
          "internalType": "bytes",
          "name": "verdict",
          "type": "bytes"
        },
        {
          "internalType": "uint256",
          "name": "settlementFee",
          "type": "uint256"
        }
      ],
      "name": "settleCase",
      "outputs": [],
      "stateMutability": "payable",
      "type": "function"
    },
    {
      "inputs": [],
      "name": "spInstance",
      "outputs": [
        {
          "internalType": "contract ISP",
          "name": "",
          "type": "address"
        }
      ],
      "stateMutability": "view",
      "type": "function"
    },
    {
      "inputs": [
        {
          "internalType": "uint64",
          "name": "caseId",
          "type": "uint64"
        },
        {
          "internalType": "bytes",
          "name": "evidence",
          "type": "bytes"
        }
      ],
      "name": "submitEvidence",
      "outputs": [],
      "stateMutability": "nonpayable",
      "type": "function"
    },
    {
      "inputs": [
        {
          "internalType": "address",
          "name": "newOwner",
          "type": "address"
        }
      ],
      "name": "transferOwnership",
      "outputs": [],
      "stateMutability": "nonpayable",
      "type": "function"
    },
    {
      "inputs": [
        {
          "internalType": "address",
          "name": "",
          "type": "address"
        },
        {
          "internalType": "uint256",
          "name": "",
          "type": "uint256"
        }
      ],
      "name": "userCases",
      "outputs": [
        {
          "internalType": "uint64",
          "name": "",
          "type": "uint64"
        }
      ],
      "stateMutability": "view",
      "type": "function"
    },
    {
      "inputs": [
        {
          "internalType": "address payable",
          "name": "recipient",
          "type": "address"
        },
        {
          "internalType": "uint256",
          "name": "amount",
          "type": "uint256"
        }
      ],
      "name": "withdrawFunds",
      "outputs": [],
      "stateMutability": "nonpayable",
      "type": "function"
    },
    {
      "stateMutability": "payable",
      "type": "receive"
    }
  ],
  "bytecode": "0x608060405234801561001057600080fd5b50338061003757604051631e4fbdf760e01b81526000600482015260240160405180910390fd5b61004081610046565b50610096565b600080546001600160a01b038381166001600160a01b0319831681178455604051919092169283917f8be0079c531659141344cd1fd0a4f28419497f9722a3daafe3b4186f6b6457e09190a35050565b611e35806100a56000396000f3fe6080604052600436106100ec5760003560e01c80638e9d660f1161008a578063a8c5dc3311610059578063a8c5dc331461028c578063c1075329146102ac578063e1075ed3146102cc578063f2fde38b146102f957600080fd5b80638e9d660f14610205578063941dc5151461022557806398ea38e814610245578063a1c08ee11461025857600080fd5b8063501ab177116100c6578063501ab1771461017e57806361f100c214610191578063715018a6146101be5780638da5cb5b146101d357600080fd5b806305ca8ee3146100f8578063075b1a091461011a578063463a65871461015e57600080fd5b366100f357005b600080fd5b34801561010457600080fd5b506101186101133660046115a4565b610319565b005b34801561012657600080fd5b5060015461014190600160a01b90046001600160401b031681565b6040516001600160401b0390911681526020015b60405180910390f35b34801561016a57600080fd5b50610118610179366004611673565b61034e565b61011861018c3660046116d7565b6104bd565b34801561019d57600080fd5b506101b16101ac3660046115a4565b610aa5565b60405161015591906117ed565b3480156101ca57600080fd5b50610118610d9e565b3480156101df57600080fd5b506000546001600160a01b03165b6040516001600160a01b039091168152602001610155565b34801561021157600080fd5b506101186102203660046118c3565b610db2565b34801561023157600080fd5b506101416102403660046118e0565b610ddc565b61011861025336600461190c565b610e28565b34801561026457600080fd5b506102786102733660046115a4565b611174565b604051610155989796959493929190611953565b34801561029857600080fd5b506001546101ed906001600160a01b031681565b3480156102b857600080fd5b506101186102c73660046118e0565b6112e6565b3480156102d857600080fd5b506102ec6102e73660046118c3565b611379565b60405161015591906119c6565b34801561030557600080fd5b506101186103143660046118c3565b611417565b610321611455565b600180546001600160401b03909216600160a01b0267ffffffffffffffff60a01b19909216919091179055565b6001600160401b0380831660009081526002602052604081206003810154909261010090910416900361039c5760405162461bcd60e51b815260040161039390611a13565b60405180910390fd5b600381015460ff16156103e85760405162461bcd60e51b815260206004820152601460248201527310d85cd948185b1c9958591e481cd95d1d1b195960621b6044820152606401610393565b80546001600160a01b0316336001600160a01b0316148061041e575060018101546001600160a01b0316336001600160a01b0316145b61045b5760405162461bcd60e51b815260206004820152600e60248201526d139bdd08185d5d1a1bdc9a5e995960921b6044820152606401610393565b600781018054600181018255600091825260209091200161047c8382611ac5565b507fd6cf1d8f6218809841b3a961c8bd9f6e20ae7b3f1de29cb63ec0bed0f902a20d8333846040516104b093929190611b84565b60405180910390a1505050565b803410156105175760405162461bcd60e51b815260206004820152602160248201527f496e73756666696369656e742066756e647320666f722066696c696e672066656044820152606560f81b6064820152608401610393565b600033848460405160200161052e93929190611bc0565b60408051601f1981840301815291815281516020928301206001600160401b038082166000908152600290945291909220600301549192508291829161010090910416156105b45760405162461bcd60e51b81526020600482015260136024820152724361736520616c72656164792065786973747360681b6044820152606401610393565b60408051600280825260608201909252600091816020015b60608152602001906001900390816105cc57905050905033604080516001600160a01b039092166020830152016040516020818303038152906040528160008151811061061b5761061b611c06565b60200260200101819052508660405160200161064691906001600160a01b0391909116815260200190565b6040516020818303038152906040528160018151811061066857610668611c06565b6020908102919091018101919091526040805161014081018252600154600160a01b90046001600160401b0316815260009281018390529081018290526060810182905230608082015260a0810182905260c08101828152602001600015158152602001838152602001886040516020016106e39190611c1c565b60408051601f198184030181529181529152600154905163b82916cb60e01b81529192506000916001600160a01b039091169063b82916cb9061072a908590600401611c51565b6020604051808303816000875af1158015610749573d6000803e3d6000fd5b505050506040513d601f19601f8201168201806040525081019061076d9190611d85565b90506040518061012001604052806107823390565b6001600160a01b031681526020018a6001600160a01b03168152602001898152602001600015158152602001826001600160401b031681526020018881526020016000815260200160405180602001604052806000815250815260200160006001600160401b038111156107f8576107f86115c8565b60405190808252806020026020018201604052801561082b57816020015b60608152602001906001900390816108165790505b5090526001600160401b038516600090815260026020818152604092839020845181546001600160a01b03199081166001600160a01b0392831617835592860151600183018054909416911617909155918301519082019061088d9082611ac5565b50606082015160038201805460808501516001600160401b03166101000268ffffffffffffffff00199315159390931668ffffffffffffffffff199091161791909117905560a0820151600482015560c0820151600582015560e082015160068201906108fa9082611ac5565b5061010082015180516109179160078401916020909101906114d2565b50905050600360006109263390565b6001600160a01b03166001600160a01b031681526020019081526020016000208490806001815401808255809150506001900390600052602060002090600491828204019190066008029091909190916101000a8154816001600160401b0302191690836001600160401b03160217905550600360008a6001600160a01b03166001600160a01b031681526020019081526020016000208490806001815401808255809150506001900390600052602060002090600491828204019190066008029091909190916101000a8154816001600160401b0302191690836001600160401b031602179055507fe4b5cb912a8554b68e04825c0d65d1a485da5fc39a1813c56bf2261fb51b439184610a383390565b8b8b604051610a4a9493929190611da2565b60405180910390a1604080516001600160401b038616815233602082015280820189905290517f0a59a82e20a8bf6ec5975b87cb7fe14267f5fdda2ac120ea8d2560721a1cf9fd9181900360600190a1505050505050505050565b604080516101208101825260008082526020820181905260609282018390528282018190526080820181905260a0820181905260c082015260e081018290526101008101919091526001600160401b03808316600090815260026020526040812060038101549092610100909104169003610b325760405162461bcd60e51b815260040161039390611a13565b604080516101208101825282546001600160a01b0390811682526001840154166020820152600283018054919284929084019190610b6f90611a3b565b80601f0160208091040260200160405190810160405280929190818152602001828054610b9b90611a3b565b8015610be85780601f10610bbd57610100808354040283529160200191610be8565b820191906000526020600020905b815481529060010190602001808311610bcb57829003601f168201915b5050509183525050600382015460ff81161515602083015261010090046001600160401b03166040820152600482015460608201526005820154608082015260068201805460a090920191610c3c90611a3b565b80601f0160208091040260200160405190810160405280929190818152602001828054610c6890611a3b565b8015610cb55780601f10610c8a57610100808354040283529160200191610cb5565b820191906000526020600020905b815481529060010190602001808311610c9857829003601f168201915b5050505050815260200160078201805480602002602001604051908101604052809291908181526020016000905b82821015610d8f578382906000526020600020018054610d0290611a3b565b80601f0160208091040260200160405190810160405280929190818152602001828054610d2e90611a3b565b8015610d7b5780601f10610d5057610100808354040283529160200191610d7b565b820191906000526020600020905b815481529060010190602001808311610d5e57829003601f168201915b505050505081526020019060010190610ce3565b50505091525090949350505050565b610da6611455565b610db06000611482565b565b610dba611455565b600180546001600160a01b0319166001600160a01b0392909216919091179055565b60036020528160005260406000208181548110610df857600080fd5b9060005260206000209060049182820401919006600802915091509054906101000a90046001600160401b031681565b610e30611455565b6001600160401b03808416600090815260026020526040812060038101549092610100909104169003610e755760405162461bcd60e51b815260040161039390611a13565b600381015460ff1615610ec15760405162461bcd60e51b815260206004820152601460248201527310d85cd948185b1c9958591e481cd95d1d1b195960621b6044820152606401610393565b81341015610f1f5760405162461bcd60e51b815260206004820152602560248201527f496e73756666696369656e742066756e647320666f7220736574746c656d656e604482015264742066656560d81b6064820152608401610393565b60408051600280825260608201909252600091816020015b6060815260200190600190039081610f37579050508254604080516001600160a01b0390921660208301529192500160405160208183030381529060405281600081518110610f8857610f88611c06565b6020908102919091018101919091526001830154604080516001600160a01b03909216928201929092520160405160208183030381529060405281600181518110610fd557610fd5611c06565b60209081029190910181019190915260408051610140810182526001546001600160401b03600160a01b8204811683526003870154610100908190049091169483019490945260008284018190526060830181905230608084015260a0830181905260c0830181905260e083018190529382018590526101208201889052915163b82916cb60e01b81529092916001600160a01b03169063b82916cb90611080908590600401611c51565b6020604051808303816000875af115801561109f573d6000803e3d6000fd5b505050506040513d601f19601f820116820180604052508101906110c39190611d85565b60038501805460ff19166001179055600585018690559050600684016110e98782611ac5565b507f6b6208970666cbd266ce2df3a54839e09cc46ee44bfb299214f5ea48a02c64e0878760405161111b929190611ddd565b60405180910390a1604080516001600160401b038916815233602082015280820187905290517f0a59a82e20a8bf6ec5975b87cb7fe14267f5fdda2ac120ea8d2560721a1cf9fd9181900360600190a150505050505050565b60026020819052600091825260409091208054600182015492820180546001600160a01b039283169490921692916111ab90611a3b565b80601f01602080910402602001604051908101604052809291908181526020018280546111d790611a3b565b80156112245780601f106111f957610100808354040283529160200191611224565b820191906000526020600020905b81548152906001019060200180831161120757829003601f168201915b50505050600383015460048401546005850154600686018054959660ff8516966101009095046001600160401b03169550929391929161126390611a3b565b80601f016020809104026020016040519081016040528092919081815260200182805461128f90611a3b565b80156112dc5780601f106112b1576101008083540402835291602001916112dc565b820191906000526020600020905b8154815290600101906020018083116112bf57829003601f168201915b5050505050905088565b6112ee611455565b8047101561133e5760405162461bcd60e51b815260206004820152601d60248201527f496e73756666696369656e7420636f6e74726163742062616c616e63650000006044820152606401610393565b6040516001600160a01b0383169082156108fc029083906000818181858888f19350505050158015611374573d6000803e3d6000fd5b505050565b6001600160a01b03811660009081526003602090815260409182902080548351818402810184019094528084526060939283018282801561140b57602002820191906000526020600020906000905b82829054906101000a90046001600160401b03166001600160401b0316815260200190600801906020826007010492830192600103820291508084116113c85790505b50505050509050919050565b61141f611455565b6001600160a01b03811661144957604051631e4fbdf760e01b815260006004820152602401610393565b61145281611482565b50565b6000546001600160a01b03163314610db05760405163118cdaa760e01b8152336004820152602401610393565b600080546001600160a01b038381166001600160a01b0319831681178455604051919092169283917f8be0079c531659141344cd1fd0a4f28419497f9722a3daafe3b4186f6b6457e09190a35050565b828054828255906000526020600020908101928215611518579160200282015b8281111561151857825182906115089082611ac5565b50916020019190600101906114f2565b50611524929150611528565b5090565b8082111561152457600061153c8282611545565b50600101611528565b50805461155190611a3b565b6000825580601f10611561575050565b601f01602090049060005260206000209081019061145291905b80821115611524576000815560010161157b565b6001600160401b038116811461145257600080fd5b6000602082840312156115b657600080fd5b81356115c18161158f565b9392505050565b634e487b7160e01b600052604160045260246000fd5b60006001600160401b03808411156115f8576115f86115c8565b604051601f8501601f19908116603f01168101908282118183101715611620576116206115c8565b8160405280935085815286868601111561163957600080fd5b858560208301376000602087830101525050509392505050565b600082601f83011261166457600080fd5b6115c1838335602085016115de565b6000806040838503121561168657600080fd5b82356116918161158f565b915060208301356001600160401b038111156116ac57600080fd5b6116b885828601611653565b9150509250929050565b6001600160a01b038116811461145257600080fd5b6000806000606084860312156116ec57600080fd5b83356116f7816116c2565b925060208401356001600160401b0381111561171257600080fd5b8401601f8101861361172357600080fd5b611732868235602084016115de565b925050604084013590509250925092565b60005b8381101561175e578181015183820152602001611746565b50506000910152565b6000815180845261177f816020860160208601611743565b601f01601f19169290920160200192915050565b60008282518085526020808601955060208260051b8401016020860160005b848110156117e057601f198684030189526117ce838351611767565b988401989250908301906001016117b2565b5090979650505050505050565b602081526118076020820183516001600160a01b03169052565b6000602083015161182360408401826001600160a01b03169052565b506040830151610120806060850152611840610140850183611767565b91506060850151611855608086018215159052565b5060808501516001600160401b03811660a08601525060a085015160c085015260c085015160e085015260e0850151601f1961010081878603018188015261189d8584611767565b9088015187820390920184880152935090506118b98382611793565b9695505050505050565b6000602082840312156118d557600080fd5b81356115c1816116c2565b600080604083850312156118f357600080fd5b82356118fe816116c2565b946020939093013593505050565b60008060006060848603121561192157600080fd5b833561192c8161158f565b925060208401356001600160401b0381111561194757600080fd5b61173286828701611653565b6001600160a01b03898116825288166020820152610100604082018190526000906119808382018a611767565b905087151560608401526001600160401b03871660808401528560a08401528460c084015282810360e08401526119b78185611767565b9b9a5050505050505050505050565b6020808252825182820181905260009190848201906040850190845b81811015611a075783516001600160401b0316835292840192918401916001016119e2565b50909695505050505050565b6020808252600e908201526d10d85cd9481b9bdd08199bdd5b9960921b604082015260600190565b600181811c90821680611a4f57607f821691505b602082108103611a6f57634e487b7160e01b600052602260045260246000fd5b50919050565b601f821115611374576000816000526020600020601f850160051c81016020861015611a9e5750805b601f850160051c820191505b81811015611abd57828155600101611aaa565b505050505050565b81516001600160401b03811115611ade57611ade6115c8565b611af281611aec8454611a3b565b84611a75565b602080601f831160018114611b275760008415611b0f5750858301515b600019600386901b1c1916600185901b178555611abd565b600085815260208120601f198616915b82811015611b5657888601518255948401946001909101908401611b37565b5085821015611b745787850151600019600388901b60f8161c191681555b5050505050600190811b01905550565b6001600160401b03841681526001600160a01b0383166020820152606060408201819052600090611bb790830184611767565b95945050505050565b60006bffffffffffffffffffffffff19808660601b168352808560601b166014840152508251611bf7816028850160208701611743565b91909101602801949350505050565b634e487b7160e01b600052603260045260246000fd5b6020815260006115c16020830184611767565b60048110611c4d57634e487b7160e01b600052602160045260246000fd5b9052565b60808152611c6b6080820183516001600160401b03169052565b60006020830151611c8760a08401826001600160401b03169052565b5060408301516001600160401b0390811660c084015260608401511660e083015260808301516001600160a01b0381166101008085019190915260a08501519150610120611cdf818601846001600160401b03169052565b60c08601519250610140611cf581870185611c2f565b60e08701511515610160870152828701516101808701919091529250611d1f6101c0860184611793565b90860151858203607f19016101a08701529092509050611d3f8282611767565b9150508281036020840152611d58816000815260200190565b8381036040850152600081529050602081018381036060850152600081529050602081015b949350505050565b600060208284031215611d9757600080fd5b81516115c18161158f565b6001600160401b03851681526001600160a01b038481166020830152831660408201526080606082018190526000906118b990830184611767565b6001600160401b0383168152604060208201526000611d7d604083018461176756fea264697066735822122015a39c058188fd343c16d5f8bd60b9e3de70883a46023d0bd0827e47a3740c6864736f6c63430008180033",
  "linkReferences": {},
  "deployedLinkReferences": {}
}